:100000000C942A000C9434000C9434000C943400AA
:100010000C9434000C9434000C9434000C94340090
:100020000C9434000C9434000C9434000C94340080
:100030000C9434000C9434000C9434000C94340070
:100040000C9434000C9434000C9434000C94340060
:100050000C94340011241FBECFE5D8E0DEBFCDBF25
:100060000E9436000C9469000C940000DF93CF933B
:10007000CDB7DEB7AAE3B0E0EAE3F0E080818160CB
:100080008C93AAE3B0E0EAE3F0E080818D7F8C936B
:10009000ABE3B0E0EBE3F0E0808182608C93E9E3D6
:1000A000F0E080818695882F90E0817090700097B5
:1000B00041F4ABE3B0E0EBE3F0E0808181608C934E
:1000C000EECFABE3B0E0EBE3F0E080818E7F8C938A
:0600D000E6CFF894FFCF1B
:00000001FF
